{
  "contractName": "Counter",
  "abi": [
    {
      "inputs": [
        {
          "internalType": "address",
          "name": "",
          "type": "address"
        }
      ],
      "name": "count",
      "outputs": [
        {
          "internalType": "uint256",
          "name": "",
          "type": "uint256"
        }
      ],
      "stateMutability": "view",
      "type": "function"
    },
    {
      "inputs": [],
      "name": "add",
      "outputs": [
        {
          "internalType": "bool",
          "name": "",
          "type": "bool"
        }
      ],
      "stateMutability": "nonpayable",
      "type": "function"
    }
  ],
  "bytecode": "0x608060405234801561001057600080fd5b50610159806100206000396000f3fe608060405234801561001057600080fd5b50600436106100365760003560e01c806305d85eda1461003b5780634f2be91f14610093575b600080fd5b61007d6004803603602081101561005157600080fd5b81019080803573ffffffffffffffffffffffffffffffffffffffff1690602001909291905050506100b5565b6040518082815260200191505060405180910390f35b61009b6100cd565b604051808215151515815260200191505060405180910390f35b60006020528060005260406000206000915090505481565b600060016000803373ffffffffffffffffffffffffffffffffffffffff1673ffffffffffffffffffffffffffffffffffffffff16815260200190815260200160002060008282540192505081905550600190509056fea264697066735822122082d7cded8b03e1866fd87cc591cad7c298a506a69e72817bbb85b84f6fbd881964736f6c63430006050033",
  "immutableReferences": {},
  "source": "pragma solidity =0.6.5;\n\ncontract Counter {\n\n    mapping(address => uint256) public count;\n\n    /*\n    *   Count contract for example\n    */\n    function add() \n      public returns (bool) {\n        count[msg.sender] += 1;\n        return true;\n    }\n}",
  "sourcePath": "/Users/kevinfoesenek/Desktop/gasAbstraction/contracts/test_count/Count.sol",
  "compiler": {
    "name": "solc",
    "version": "0.6.5+commit.f956cc89.Emscripten.clang"
  },
  "schemaVersion": "3.1.0",
  "updatedAt": "2020-07-17T08:31:38.309Z",
  "devdoc": {
    "methods": {}
  },
  "userdoc": {
    "methods": {}
  }
}