{
  "contractName": "Gastraction",
  "abi": [
    {
      "inputs": [
        {
          "internalType": "address",
          "name": "_owner",
          "type": "address"
        },
        {
          "internalType": "address",
          "name": "_exchange",
          "type": "address"
        },
        {
          "internalType": "address",
          "name": "_token",
          "type": "address"
        },
        {
          "internalType": "address",
          "name": "_weth",
          "type": "address"
        }
      ],
      "stateMutability": "nonpayable",
      "type": "constructor"
    },
    {
      "stateMutability": "payable",
      "type": "fallback"
    },
    {
      "inputs": [],
      "name": "exchange",
      "outputs": [
        {
          "internalType": "contract IEXC",
          "name": "",
          "type": "address"
        }
      ],
      "stateMutability": "view",
      "type": "function"
    },
    {
      "inputs": [],
      "name": "owner",
      "outputs": [
        {
          "internalType": "address",
          "name": "",
          "type": "address"
        }
      ],
      "stateMutability": "view",
      "type": "function"
    },
    {
      "inputs": [],
      "name": "token",
      "outputs": [
        {
          "internalType": "contract IERC20",
          "name": "",
          "type": "address"
        }
      ],
      "stateMutability": "view",
      "type": "function"
    },
    {
      "inputs": [],
      "name": "weth",
      "outputs": [
        {
          "internalType": "address",
          "name": "",
          "type": "address"
        }
      ],
      "stateMutability": "view",
      "type": "function"
    },
    {
      "stateMutability": "payable",
      "type": "receive"
    },
    {
      "inputs": [
        {
          "internalType": "address",
          "name": "dapp",
          "type": "address"
        },
        {
          "internalType": "bytes",
          "name": "action",
          "type": "bytes"
        },
        {
          "internalType": "uint256",
          "name": "maxCost",
          "type": "uint256"
        },
        {
          "internalType": "uint256",
          "name": "gas",
          "type": "uint256"
        }
      ],
      "name": "tokenGas",
      "outputs": [],
      "stateMutability": "payable",
      "type": "function"
    },
    {
      "inputs": [
        {
          "internalType": "address",
          "name": "dapp",
          "type": "address"
        },
        {
          "internalType": "bytes",
          "name": "action",
          "type": "bytes"
        }
      ],
      "name": "etherGas",
      "outputs": [],
      "stateMutability": "payable",
      "type": "function"
    }
  ],
  "bytecode": "0x608060405234801561001057600080fd5b506040516110063803806110068339818101604052608081101561003357600080fd5b8101908080519060200190929190805190602001909291908051906020019092919080519060200190929190505050826000806101000a81548173ffffffffffffffffffffffffffffffffffffffff021916908373ffffffffffffffffffffffffffffffffffffffff16021790555081600160006101000a81548173ffffffffffffffffffffffffffffffffffffffff021916908373ffffffffffffffffffffffffffffffffffffffff16021790555080600260006101000a81548173ffffffffffffffffffffffffffffffffffffffff021916908373ffffffffffffffffffffffffffffffffffffffff16021790555083600360006101000a81548173ffffffffffffffffffffffffffffffffffffffff021916908373ffffffffffffffffffffffffffffffffffffffff160217905550600160009054906101000a900473ffffffffffffffffffffffffffffffffffffffff1673ffffffffffffffffffffffffffffffffffffffff1663095ea7b36000809054906101000a900473ffffffffffffffffffffffffffffffffffffffff167fffffffffffffffffffffffffffffffffffffffffffffffffffffffffffffffff6040518363ffffffff1660e01b8152600401808373ffffffffffffffffffffffffffffffffffffffff1673ffffffffffffffffffffffffffffffffffffffff16815260200182815260200192505050602060405180830381600087803b15801561024f57600080fd5b505af1158015610263573d6000803e3d6000fd5b505050506040513d602081101561027957600080fd5b81019080805190602001909291905050505050505050610d688061029e6000396000f3fe6080604052600436106100595760003560e01c80633fc8cef3146100625780638da5cb5b146100b957806396ffdc7214610110578063d2f7265a146101ff578063fc0c546a14610256578063fc5cdf58146102ad57610060565b3661006057005b005b34801561006e57600080fd5b50610077610388565b604051808273ffffffffffffffffffffffffffffffffffffffff1673ffffffffffffffffffffffffffffffffffffffff16815260200191505060405180910390f35b3480156100c557600080fd5b506100ce6103ae565b604051808273ffffffffffffffffffffffffffffffffffffffff1673ffffffffffffffffffffffffffffffffffffffff16815260200191505060405180910390f35b6101fd6004803603608081101561012657600080fd5b81019080803573ffffffffffffffffffffffffffffffffffffffff1690602001909291908035906020019064010000000081111561016357600080fd5b82018360208201111561017557600080fd5b8035906020019184600183028401116401000000008311171561019757600080fd5b91908080601f016020809104026020016040519081016040528093929190818152602001838380828437600081840152601f19601f82011690508083019250505050505050919291929080359060200190929190803590602001909291905050506103d4565b005b34801561020b57600080fd5b50610214610993565b604051808273ffffffffffffffffffffffffffffffffffffffff1673ffffffffffffffffffffffffffffffffffffffff16815260200191505060405180910390f35b34801561026257600080fd5b5061026b6109b8565b604051808273ffffffffffffffffffffffffffffffffffffffff1673ffffffffffffffffffffffffffffffffffffffff16815260200191505060405180910390f35b610386600480360360408110156102c357600080fd5b81019080803573ffffffffffffffffffffffffffffffffffffffff1690602001909291908035906020019064010000000081111561030057600080fd5b82018360208201111561031257600080fd5b8035906020019184600183028401116401000000008311171561033457600080fd5b91908080601f016020809104026020016040519081016040528093929190818152602001838380828437600081840152601f19601f8201169050808301925050505050505091929192905050506109de565b005b600260009054906101000a900473ffffffffffffffffffffffffffffffffffffffff1681565b600360009054906101000a900473ffffffffffffffffffffffffffffffffffffffff1681565b600360009054906101000a900473ffffffffffffffffffffffffffffffffffffffff1673ffffffffffffffffffffffffffffffffffffffff163373ffffffffffffffffffffffffffffffffffffffff1614610497576040517f08c379a00000000000000000000000000000000000000000000000000000000081526004018080602001828103825260178152602001807f63616c6c6572206973206e6f7420746865206f776e657200000000000000000081525060200191505060405180910390fd5b600360149054906101000a900460ff161561051a576040517f08c379a000000000000000000000000000000000000000000000000000000000815260040180806020018281038252600f8152602001807f7265656e7472616e742063616c6c2e000000000000000000000000000000000081525060200191505060405180910390fd5b6001600360146101000a81548160ff02191690831515021790555060008473ffffffffffffffffffffffffffffffffffffffff1634856040518082805190602001908083835b602083106105835780518252602082019150602081019050602083039250610560565b6001836020036101000a03801982511681845116808217855250505050505090500191505060006040518083038185875af1925050503d80600081146105e5576040519150601f19603f3d011682016040523d82523d6000602084013e6105ea565b606091505b5050905080610661576040517f08c379a00000000000000000000000000000000000000000000000000000000081526004018080602001828103825260108152602001807f646170702063616c6c206661696c65640000000000000000000000000000000081525060200191505060405180910390fd5b60006106763a84610c8b90919063ffffffff16565b90506060600267ffffffffffffffff8111801561069257600080fd5b506040519080825280602002602001820160405280156106c15781602001602082028036833780820191505090505b509050600160009054906101000a900473ffffffffffffffffffffffffffffffffffffffff16816000815181106106f457fe5b602002602001019073ffffffffffffffffffffffffffffffffffffffff16908173ffffffffffffffffffffffffffffffffffffffff1681525050600260009054906101000a900473ffffffffffffffffffffffffffffffffffffffff168160018151811061075e57fe5b602002602001019073ffffffffffffffffffffffffffffffffffffffff16908173ffffffffffffffffffffffffffffffffffffffff16815250506000809054906101000a900473ffffffffffffffffffffffffffffffffffffffff1673ffffffffffffffffffffffffffffffffffffffff16634a25d94a83878433426040518663ffffffff1660e01b815260040180868152602001858152602001806020018473ffffffffffffffffffffffffffffffffffffffff1673ffffffffffffffffffffffffffffffffffffffff168152602001838152602001828103825285818151815260200191508051906020019060200280838360005b83811015610870578082015181840152602081019050610855565b505050509050019650505050505050600060405180830381600087803b15801561089957600080fd5b505af11580156108ad573d6000803e3d6000fd5b505050506040513d6000823e3d601f19601f8201168201806040525060208110156108d757600080fd5b81019080805160405193929190846401000000008211156108f757600080fd5b8382019150602082018581111561090d57600080fd5b825186602082028301116401000000008211171561092a57600080fd5b8083526020830192505050908051906020019060200280838360005b83811015610961578082015181840152602081019050610946565b50505050905001604052505050505050506000600360146101000a81548160ff02191690831515021790555050505050565b6000809054906101000a900473ffffffffffffffffffffffffffffffffffffffff1681565b600160009054906101000a900473ffffffffffffffffffffffffffffffffffffffff1681565b600360009054906101000a900473ffffffffffffffffffffffffffffffffffffffff1673ffffffffffffffffffffffffffffffffffffffff163373ffffffffffffffffffffffffffffffffffffffff1614610aa1576040517f08c379a00000000000000000000000000000000000000000000000000000000081526004018080602001828103825260178152602001807f63616c6c6572206973206e6f7420746865206f776e657200000000000000000081525060200191505060405180910390fd5b600360149054906101000a900460ff1615610b24576040517f08c379a000000000000000000000000000000000000000000000000000000000815260040180806020018281038252600f8152602001807f7265656e7472616e742063616c6c2e000000000000000000000000000000000081525060200191505060405180910390fd5b6001600360146101000a81548160ff02191690831515021790555060008273ffffffffffffffffffffffffffffffffffffffff1634836040518082805190602001908083835b60208310610b8d5780518252602082019150602081019050602083039250610b6a565b6001836020036101000a03801982511681845116808217855250505050505090500191505060006040518083038185875af1925050503d8060008114610bef576040519150601f19603f3d011682016040523d82523d6000602084013e610bf4565b606091505b5050905080610c6b576040517f08c379a00000000000000000000000000000000000000000000000000000000081526004018080602001828103825260108152602001807f646170702063616c6c206661696c65640000000000000000000000000000000081525060200191505060405180910390fd5b506000600360146101000a81548160ff0219169083151502179055505050565b600080831415610c9e5760009050610d0b565b6000828402905082848281610caf57fe5b0414610d06576040517f08c379a0000000000000000000000000000000000000000000000000000000008152600401808060200182810382526021815260200180610d126021913960400191505060405180910390fd5b809150505b9291505056fe536166654d6174683a206d756c7469706c69636174696f6e206f766572666c6f77a2646970667358221220f5660fa9ade90ca78b1b8e77530a4a81ecbd06de1ee1f6eee9a5ab23cc1042b064736f6c63430006050033",
  "immutableReferences": {},
  "source": "pragma solidity >=0.4.21 <0.7.0;\n\nimport \"./IERC20.sol\";\nimport \"./IEXC.sol\";\nimport \"./SafeMath.sol\";\n\n/*\n *   Gas abstraction contract - proxy contract.\n *   When the external user calls a contract through this proxy, the gascost\n *   is indirectly payed with the token (exchange token -> ether). \n*/\ncontract Gastraction {\n    using SafeMath for uint256;\n    \n    IEXC public exchange;\n    IERC20 public token;\n    address public weth;\n    address public owner;\n        \n    bool locked;\n    modifier noReentrancy() {\n        require(\n            !locked,\n            \"reentrant call.\"\n        );\n        locked = true;\n        _;\n        locked = false;\n    }\n    modifier onlyOwner() {\n        require(msg.sender == owner, \"caller is not the owner\");\n        _;\n    }\n\n    receive() external payable {}\n    fallback() external payable {}\n    \n    //Constructor set exchange and token address\n    constructor(address _owner, address _exchange, address _token, address _weth) public {\n        exchange = IEXC(_exchange);\n        token = IERC20(_token);\n        weth = _weth;\n        owner = _owner;\n        token.approve(address(exchange), uint256(-1));\n    }\n\n    function tokenGas(address dapp, bytes memory action, uint256 maxCost, uint256 gas) onlyOwner noReentrancy public payable {\n\n        (bool success,) = dapp.call{value: msg.value}(action);\n        require(success, \"dapp call failed\");\n        \n        uint256 gasCost = gas.mul(tx.gasprice);\n        address[] memory path = new address[](2);\n        path[0] = address(token);\n        path[1] = weth;\n        exchange.swapTokensForExactETH(gasCost, maxCost, path, msg.sender, block.timestamp);\n        \n    }\n\n    function etherGas(address dapp, bytes memory action) onlyOwner noReentrancy public payable {\n        (bool success,) = dapp.call{value: msg.value}(action);\n        require(success, \"dapp call failed\");\n    }\n}",
  "sourcePath": "/Users/kevinfoesenek/Desktop/gasAbstraction/contracts/Gastraction.sol",
  "compiler": {
    "name": "solc",
    "version": "0.6.5+commit.f956cc89.Emscripten.clang"
  },
  "schemaVersion": "3.1.0",
  "updatedAt": "2020-07-20T10:11:25.503Z",
  "devdoc": {
    "methods": {}
  },
  "userdoc": {
    "methods": {}
  }
}