{
  "contractName": "Exchange",
  "abi": [
    {
      "stateMutability": "payable",
      "type": "fallback",
      "payable": true
    },
    {
      "stateMutability": "payable",
      "type": "receive",
      "payable": true
    },
    {
      "inputs": [
        {
          "internalType": "uint256",
          "name": "amountOut",
          "type": "uint256"
        },
        {
          "internalType": "uint256",
          "name": "amountInMax",
          "type": "uint256"
        },
        {
          "internalType": "address[]",
          "name": "path",
          "type": "address[]"
        },
        {
          "internalType": "address",
          "name": "to",
          "type": "address"
        },
        {
          "internalType": "uint256",
          "name": "deadline",
          "type": "uint256"
        }
      ],
      "name": "swapTokensForExactETH",
      "outputs": [
        {
          "internalType": "uint256[]",
          "name": "amounts",
          "type": "uint256[]"
        }
      ],
      "stateMutability": "nonpayable",
      "type": "function"
    }
  ],
  "bytecode": "0x608060405234801561001057600080fd5b50610475806100206000396000f3fe6080604052600436106100225760003560e01c80634a25d94a1461002b57610029565b3661002957005b005b34801561003757600080fd5b5061012c600480360360a081101561004e57600080fd5b8101908080359060200190929190803590602001909291908035906020019064010000000081111561007f57600080fd5b82018360208201111561009157600080fd5b803590602001918460208302840111640100000000831117156100b357600080fd5b919080806020026020016040519081016040528093929190818152602001838360200280828437600081840152601f19601f820116905080830192505050505050509192919290803573ffffffffffffffffffffffffffffffffffffffff16906020019092919080359060200190929190505050610183565b6040518080602001828103825283818151815260200191508051906020019060200280838360005b8381101561016f578082015181840152602081019050610154565b505050509050019250505060405180910390f35b6060428210156101fb576040517f08c379a000000000000000000000000000000000000000000000000000000000815260040180806020018281038252600f8152602001807f646561646c696e6520706173736564000000000000000000000000000000000081525060200191505060405180910390fd5b60008460008151811061020a57fe5b60200260200101519050600060c88802905086811115610292576040517f08c379a00000000000000000000000000000000000000000000000000000000081526004018080602001828103825260188152602001807f616d6f756e742061626f766520616d6f756e74496e4d6178000000000000000081525060200191505060405180910390fd5b8173ffffffffffffffffffffffffffffffffffffffff166323b872dd3330846040518463ffffffff1660e01b8152600401808473ffffffffffffffffffffffffffffffffffffffff1673ffffffffffffffffffffffffffffffffffffffff1681526020018373ffffffffffffffffffffffffffffffffffffffff1673ffffffffffffffffffffffffffffffffffffffff1681526020018281526020019350505050602060405180830381600087803b15801561034d57600080fd5b505af1158015610361573d6000803e3d6000fd5b505050506040513d602081101561037757600080fd5b810190808051906020019092919050505050600167ffffffffffffffff811180156103a157600080fd5b506040519080825280602002602001820160405280156103d05781602001602082028036833780820191505090505b50925087836000815181106103e157fe5b6020026020010181815250508473ffffffffffffffffffffffffffffffffffffffff166108fc899081150290604051600060405180830381858888f19350505050158015610433573d6000803e3d6000fd5b5050509594505050505056fea26469706673582212200036ca7f5053d174cdae9bc9b1905eae8ae7e9edee4f82b46dacce7793038d8d64736f6c63430006050033",
  "immutableReferences": {},
  "source": "pragma solidity >=0.4.21 <0.7.0;\n\nimport \"../IERC20.sol\";\n\n/*\n * This is a example dummy exchange for test purposes ONLY.\n * The name of the function is based on uniswapv2.\n */ \n\ncontract Exchange {\n\n  receive() external payable {}\n  fallback() external payable {}\n\n  /*\n   *  Function requires initial deposit of ETH in contract \n   *  Uses fixed price of 200 tokens for 1 ETH.\n   *\n   */\n  function swapTokensForExactETH(uint amountOut, uint amountInMax, address[] memory path, address to, uint deadline) \n      public returns (uint[] memory amounts) {\n        require(deadline >= block.timestamp, \"deadline passed\");\n        IERC20 token = IERC20(path[0]);        \n        uint256 amount = amountOut * 200;\n        require(amount <= amountInMax, \"amount above amountInMax\");\n        token.transferFrom(msg.sender, address(this), amount);\n        amounts = new uint[](1);\n        amounts[0] = amountOut;\n        payable(to).transfer(amountOut);\n  }\n}\n",
  "sourcePath": "/Users/kevinfoesenek/Desktop/gasAbstraction/contracts/test_exchange/Exchange.sol",
  "compiler": {
    "name": "solc",
    "version": "0.6.5+commit.f956cc89.Emscripten.clang"
  },
  "schemaVersion": "3.1.0",
  "updatedAt": "2020-07-15T13:26:45.606Z",
  "networkType": "ethereum",
  "devdoc": {
    "methods": {}
  },
  "userdoc": {
    "methods": {}
  }
}