{
  "contractName": "Gastraction",
  "abi": [
    {
      "inputs": [
        {
          "internalType": "address",
          "name": "_owner",
          "type": "address"
        },
        {
          "internalType": "address",
          "name": "_exchange",
          "type": "address"
        },
        {
          "internalType": "address",
          "name": "_token",
          "type": "address"
        },
        {
          "internalType": "address",
          "name": "_weth",
          "type": "address"
        }
      ],
      "stateMutability": "nonpayable",
      "type": "constructor"
    },
    {
      "stateMutability": "payable",
      "type": "fallback"
    },
    {
      "inputs": [],
      "name": "balance",
      "outputs": [
        {
          "internalType": "uint256",
          "name": "",
          "type": "uint256"
        }
      ],
      "stateMutability": "view",
      "type": "function"
    },
    {
      "inputs": [],
      "name": "exchange",
      "outputs": [
        {
          "internalType": "contract IEXC",
          "name": "",
          "type": "address"
        }
      ],
      "stateMutability": "view",
      "type": "function"
    },
    {
      "inputs": [],
      "name": "owner",
      "outputs": [
        {
          "internalType": "address",
          "name": "",
          "type": "address"
        }
      ],
      "stateMutability": "view",
      "type": "function"
    },
    {
      "inputs": [],
      "name": "token",
      "outputs": [
        {
          "internalType": "contract IERC20",
          "name": "",
          "type": "address"
        }
      ],
      "stateMutability": "view",
      "type": "function"
    },
    {
      "inputs": [],
      "name": "weth",
      "outputs": [
        {
          "internalType": "address",
          "name": "",
          "type": "address"
        }
      ],
      "stateMutability": "view",
      "type": "function"
    },
    {
      "stateMutability": "payable",
      "type": "receive"
    },
    {
      "inputs": [],
      "name": "set",
      "outputs": [],
      "stateMutability": "payable",
      "type": "function"
    },
    {
      "inputs": [
        {
          "internalType": "address",
          "name": "dapp",
          "type": "address"
        },
        {
          "internalType": "bytes",
          "name": "action",
          "type": "bytes"
        },
        {
          "internalType": "uint256",
          "name": "maxCost",
          "type": "uint256"
        }
      ],
      "name": "tokenGas",
      "outputs": [],
      "stateMutability": "payable",
      "type": "function"
    },
    {
      "inputs": [
        {
          "internalType": "address",
          "name": "dapp",
          "type": "address"
        },
        {
          "internalType": "bytes",
          "name": "action",
          "type": "bytes"
        }
      ],
      "name": "etherGas",
      "outputs": [],
      "stateMutability": "payable",
      "type": "function"
    }
  ],
  "bytecode": "0x608060405234801561001057600080fd5b506040516114b03803806114b08339818101604052608081101561003357600080fd5b8101908080519060200190929190805190602001909291908051906020019092919080519060200190929190505050826000806101000a81548173ffffffffffffffffffffffffffffffffffffffff021916908373ffffffffffffffffffffffffffffffffffffffff16021790555081600160006101000a81548173ffffffffffffffffffffffffffffffffffffffff021916908373ffffffffffffffffffffffffffffffffffffffff16021790555080600260006101000a81548173ffffffffffffffffffffffffffffffffffffffff021916908373ffffffffffffffffffffffffffffffffffffffff16021790555083600460006101000a81548173ffffffffffffffffffffffffffffffffffffffff021916908373ffffffffffffffffffffffffffffffffffffffff160217905550600160009054906101000a900473ffffffffffffffffffffffffffffffffffffffff1673ffffffffffffffffffffffffffffffffffffffff1663095ea7b36000809054906101000a900473ffffffffffffffffffffffffffffffffffffffff167fffffffffffffffffffffffffffffffffffffffffffffffffffffffffffffffff6040518363ffffffff1660e01b8152600401808373ffffffffffffffffffffffffffffffffffffffff1673ffffffffffffffffffffffffffffffffffffffff16815260200182815260200192505050602060405180830381600087803b15801561024f57600080fd5b505af1158015610263573d6000803e3d6000fd5b505050506040513d602081101561027957600080fd5b810190808051906020019092919050505050505050506112128061029e6000396000f3fe60806040526004361061007f5760003560e01c8063b8e010de1161004e578063b8e010de14610246578063d2f7265a14610250578063fc0c546a146102a7578063fc5cdf58146102fe57610086565b80633fc8cef3146100885780636260464d146100df5780638da5cb5b146101c4578063b69ef8a81461021b57610086565b3661008657005b005b34801561009457600080fd5b5061009d6103d9565b604051808273ffffffffffffffffffffffffffffffffffffffff1673ffffffffffffffffffffffffffffffffffffffff16815260200191505060405180910390f35b6101c2600480360360608110156100f557600080fd5b81019080803573ffffffffffffffffffffffffffffffffffffffff1690602001909291908035906020019064010000000081111561013257600080fd5b82018360208201111561014457600080fd5b8035906020019184600183028401116401000000008311171561016657600080fd5b91908080601f016020809104026020016040519081016040528093929190818152602001838380828437600081840152601f19601f820116905080830192505050505050509192919290803590602001909291905050506103ff565b005b3480156101d057600080fd5b506101d9610ad5565b604051808273ffffffffffffffffffffffffffffffffffffffff1673ffffffffffffffffffffffffffffffffffffffff16815260200191505060405180910390f35b34801561022757600080fd5b50610230610afb565b6040518082815260200191505060405180910390f35b61024e610b01565b005b34801561025c57600080fd5b50610265610d05565b604051808273ffffffffffffffffffffffffffffffffffffffff1673ffffffffffffffffffffffffffffffffffffffff16815260200191505060405180910390f35b3480156102b357600080fd5b506102bc610d2a565b604051808273ffffffffffffffffffffffffffffffffffffffff1673ffffffffffffffffffffffffffffffffffffffff16815260200191505060405180910390f35b6103d76004803603604081101561031457600080fd5b81019080803573ffffffffffffffffffffffffffffffffffffffff1690602001909291908035906020019064010000000081111561035157600080fd5b82018360208201111561036357600080fd5b8035906020019184600183028401116401000000008311171561038557600080fd5b91908080601f016020809104026020016040519081016040528093929190818152602001838380828437600081840152601f19601f820116905080830192505050505050509192919290505050610d50565b005b600260009054906101000a900473ffffffffffffffffffffffffffffffffffffffff1681565b600460009054906101000a900473ffffffffffffffffffffffffffffffffffffffff1673ffffffffffffffffffffffffffffffffffffffff163373ffffffffffffffffffffffffffffffffffffffff16146104c2576040517f08c379a00000000000000000000000000000000000000000000000000000000081526004018080602001828103825260178152602001807f63616c6c6572206973206e6f7420746865206f776e657200000000000000000081525060200191505060405180910390fd5b600460149054906101000a900460ff1615610545576040517f08c379a000000000000000000000000000000000000000000000000000000000815260040180806020018281038252600f8152602001807f7265656e7472616e742063616c6c2e000000000000000000000000000000000081525060200191505060405180910390fd5b6001600460146101000a81548160ff0219169083151502179055506003543373ffffffffffffffffffffffffffffffffffffffff1631106105ee576040517f08c379a00000000000000000000000000000000000000000000000000000000081526004018080602001828103825260198152602001807f62616c616e636520646f6573206e6f742064656372656173650000000000000081525060200191505060405180910390fd5b600061061c3373ffffffffffffffffffffffffffffffffffffffff16316003546110a990919063ffffffff16565b90506060600267ffffffffffffffff8111801561063857600080fd5b506040519080825280602002602001820160405280156106675781602001602082028036833780820191505090505b509050600160009054906101000a900473ffffffffffffffffffffffffffffffffffffffff168160008151811061069a57fe5b602002602001019073ffffffffffffffffffffffffffffffffffffffff16908173ffffffffffffffffffffffffffffffffffffffff1681525050600260009054906101000a900473ffffffffffffffffffffffffffffffffffffffff168160018151811061070457fe5b602002602001019073ffffffffffffffffffffffffffffffffffffffff16908173ffffffffffffffffffffffffffffffffffffffff16815250506000809054906101000a900473ffffffffffffffffffffffffffffffffffffffff1673ffffffffffffffffffffffffffffffffffffffff16634a25d94a83858433426040518663ffffffff1660e01b815260040180868152602001858152602001806020018473ffffffffffffffffffffffffffffffffffffffff1673ffffffffffffffffffffffffffffffffffffffff168152602001838152602001828103825285818151815260200191508051906020019060200280838360005b838110156108165780820151818401526020810190506107fb565b505050509050019650505050505050600060405180830381600087803b15801561083f57600080fd5b505af1158015610853573d6000803e3d6000fd5b505050506040513d6000823e3d601f19601f82011682018060405250602081101561087d57600080fd5b810190808051604051939291908464010000000082111561089d57600080fd5b838201915060208201858111156108b357600080fd5b82518660208202830111640100000000821117156108d057600080fd5b8083526020830192505050908051906020019060200280838360005b838110156109075780820151818401526020810190506108ec565b505050509050016040525050505060008573ffffffffffffffffffffffffffffffffffffffff1634866040518082805190602001908083835b602083106109635780518252602082019150602081019050602083039250610940565b6001836020036101000a03801982511681845116808217855250505050505090500191505060006040518083038185875af1925050503d80600081146109c5576040519150601f19603f3d011682016040523d82523d6000602084013e6109ca565b606091505b5050905080610a41576040517f08c379a00000000000000000000000000000000000000000000000000000000081526004018080602001828103825260108152602001807f646170702063616c6c206661696c65640000000000000000000000000000000081525060200191505060405180910390fd5b3373ffffffffffffffffffffffffffffffffffffffff163160035414610ab2576040517f08c379a00000000000000000000000000000000000000000000000000000000081526004018080602001828103825260298152602001806111b46029913960400191505060405180910390fd5b5050506000600460146101000a81548160ff021916908315150217905550505050565b600460009054906101000a900473ffffffffffffffffffffffffffffffffffffffff1681565b60035481565b600460149054906101000a900460ff1615610b84576040517f08c379a000000000000000000000000000000000000000000000000000000000815260040180806020018281038252600f8152602001807f7265656e7472616e742063616c6c2e000000000000000000000000000000000081525060200191505060405180910390fd5b6001600460146101000a81548160ff0219169083151502179055506000341115610ca8576000600460009054906101000a900473ffffffffffffffffffffffffffffffffffffffff1673ffffffffffffffffffffffffffffffffffffffff163460405180600001905060006040518083038185875af1925050503d8060008114610c2a576040519150601f19603f3d011682016040523d82523d6000602084013e610c2f565b606091505b5050905080610ca6576040517f08c379a00000000000000000000000000000000000000000000000000000000081526004018080602001828103825260158152602001807f7472616e73666572206574686572206661696c6564000000000000000000000081525060200191505060405180910390fd5b505b600460009054906101000a900473ffffffffffffffffffffffffffffffffffffffff1673ffffffffffffffffffffffffffffffffffffffff16316003819055506000600460146101000a81548160ff021916908315150217905550565b6000809054906101000a900473ffffffffffffffffffffffffffffffffffffffff1681565b600160009054906101000a900473ffffffffffffffffffffffffffffffffffffffff1681565b600460009054906101000a900473ffffffffffffffffffffffffffffffffffffffff1673ffffffffffffffffffffffffffffffffffffffff163373ffffffffffffffffffffffffffffffffffffffff1614610e13576040517f08c379a00000000000000000000000000000000000000000000000000000000081526004018080602001828103825260178152602001807f63616c6c6572206973206e6f7420746865206f776e657200000000000000000081525060200191505060405180910390fd5b600460149054906101000a900460ff1615610e96576040517f08c379a000000000000000000000000000000000000000000000000000000000815260040180806020018281038252600f8152602001807f7265656e7472616e742063616c6c2e000000000000000000000000000000000081525060200191505060405180910390fd5b6001600460146101000a81548160ff0219169083151502179055506003543373ffffffffffffffffffffffffffffffffffffffff163110610f3f576040517f08c379a00000000000000000000000000000000000000000000000000000000081526004018080602001828103825260198152602001807f62616c616e636520646f6573206e6f742064656372656173650000000000000081525060200191505060405180910390fd5b3373ffffffffffffffffffffffffffffffffffffffff163160038190555060008273ffffffffffffffffffffffffffffffffffffffff1634836040518082805190602001908083835b60208310610fab5780518252602082019150602081019050602083039250610f88565b6001836020036101000a03801982511681845116808217855250505050505090500191505060006040518083038185875af1925050503d806000811461100d576040519150601f19603f3d011682016040523d82523d6000602084013e611012565b606091505b5050905080611089576040517f08c379a00000000000000000000000000000000000000000000000000000000081526004018080602001828103825260108152602001807f646170702063616c6c206661696c65640000000000000000000000000000000081525060200191505060405180910390fd5b506000600460146101000a81548160ff0219169083151502179055505050565b60006110eb83836040518060400160405280601e81526020017f536166654d6174683a207375627472616374696f6e206f766572666c6f7700008152506110f3565b905092915050565b60008383111582906111a0576040517f08c379a00000000000000000000000000000000000000000000000000000000081526004018080602001828103825283818151815260200191508051906020019080838360005b8381101561116557808201518184015260208101905061114a565b50505050905090810190601f1680156111925780820380516001836020036101000a031916815260200191505b509250505060405180910390fd5b506000838503905080915050939250505056fe66696e616c2062616c616e6365206973206e6f7420657175616c20746f206261736520616d6f756e74a2646970667358221220e41d64bca660513f8d48e7a1a9ded0eb15eebda6a974e5fb4d9f112140df3d4d64736f6c63430006050033",
  "immutableReferences": {},
  "source": "pragma solidity >=0.4.21 <0.7.0;\n\nimport \"./IERC20.sol\";\nimport \"./IEXC.sol\";\nimport \"./SafeMath.sol\";\n\n/*\n *   Gas abstraction contract - proxy contract.\n *   When the external user calls a contract through this proxy, the gascost\n *   is indirectly payed with the token (exchange token -> ether). \n*/\ncontract Gastraction {\n    using SafeMath for uint256;\n    \n    IEXC public exchange;\n    IERC20 public token;\n    address public weth;\n\n    uint256 public balance; \n    address public owner;\n    \n    bool locked;\n    modifier noReentrancy() {\n        require(\n            !locked,\n            \"reentrant call.\"\n        );\n        locked = true;\n        _;\n        locked = false;\n    }\n    modifier onlyOwner() {\n        require(msg.sender == owner, \"caller is not the owner\");\n        _;\n    }\n    \n    receive() external payable {}\n    fallback() external payable {}\n    \n    //Constructor set exchange and token address\n    constructor(address _owner, address _exchange, address _token, address _weth) public {\n        exchange = IEXC(_exchange);\n        token = IERC20(_token);\n        weth = _weth;\n        owner = _owner;\n        token.approve(address(exchange), uint256(-1));\n    }\n    \n    function set() noReentrancy public payable {\n        if (msg.value > 0) {\n            (bool success,) = owner.call{value: msg.value}(\"\");\n            require(success, \"transfer ether failed\");\n        }\n        balance = owner.balance;\n    }\n    \n    function tokenGas(address dapp, bytes memory action, uint256 maxCost) onlyOwner noReentrancy public payable {\n        require(msg.sender.balance < balance, \"balance does not decrease\");\n        uint256 difference =  balance.sub(msg.sender.balance);\n        address[] memory path = new address[](2);\n        path[0] = address(token);\n        path[1] = weth;\n        exchange.swapTokensForExactETH(difference, maxCost, path, msg.sender, block.timestamp);\n        (bool success,) = dapp.call{value: msg.value}(action);\n        require(success, \"dapp call failed\");\n        require(balance == msg.sender.balance, \"final balance is not equal to base amount\");\n    }\n    \n    function etherGas(address dapp, bytes memory action) onlyOwner noReentrancy public payable {\n        require(msg.sender.balance < balance, \"balance does not decrease\");\n        balance = msg.sender.balance;\n        (bool success,) = dapp.call{value: msg.value}(action);\n        require(success, \"dapp call failed\");\n    }\n}",
  "sourcePath": "/Users/kevinfoesenek/Desktop/gasAbstraction/contracts/Gastraction.sol",
  "compiler": {
    "name": "solc",
    "version": "0.6.5+commit.f956cc89.Emscripten.clang"
  },
  "schemaVersion": "3.1.0",
  "updatedAt": "2020-07-15T13:26:33.037Z",
  "devdoc": {
    "methods": {}
  },
  "userdoc": {
    "methods": {}
  }
}